{
  "_format": "hh-sol-artifact-1",
  "contractName": "JohnnyTimeToken",
  "sourceName": "contracts/JohnnyTimeToken.sol",
  "abi": [
    {
      "inputs": [
        {
          "internalType": "address",
          "name": "_johnnyTimeNFTAddress",
          "type": "address"
        }
      ],
      "stateMutability": "nonpayable",
      "type": "constructor"
    },
    {
      "anonymous": false,
      "inputs": [
        {
          "indexed": true,
          "internalType": "address",
          "name": "owner",
          "type": "address"
        },
        {
          "indexed": true,
          "internalType": "address",
          "name": "spender",
          "type": "address"
        },
        {
          "indexed": false,
          "internalType": "uint256",
          "name": "value",
          "type": "uint256"
        }
      ],
      "name": "Approval",
      "type": "event"
    },
    {
      "anonymous": false,
      "inputs": [
        {
          "indexed": true,
          "internalType": "address",
          "name": "previousOwner",
          "type": "address"
        },
        {
          "indexed": true,
          "internalType": "address",
          "name": "newOwner",
          "type": "address"
        }
      ],
      "name": "OwnershipTransferred",
      "type": "event"
    },
    {
      "anonymous": false,
      "inputs": [
        {
          "indexed": true,
          "internalType": "address",
          "name": "from",
          "type": "address"
        },
        {
          "indexed": true,
          "internalType": "address",
          "name": "to",
          "type": "address"
        },
        {
          "indexed": false,
          "internalType": "uint256",
          "name": "value",
          "type": "uint256"
        }
      ],
      "name": "Transfer",
      "type": "event"
    },
    {
      "stateMutability": "payable",
      "type": "fallback"
    },
    {
      "inputs": [
        {
          "internalType": "address",
          "name": "owner",
          "type": "address"
        },
        {
          "internalType": "address",
          "name": "spender",
          "type": "address"
        }
      ],
      "name": "allowance",
      "outputs": [
        {
          "internalType": "uint256",
          "name": "",
          "type": "uint256"
        }
      ],
      "stateMutability": "view",
      "type": "function"
    },
    {
      "inputs": [
        {
          "internalType": "address",
          "name": "spender",
          "type": "address"
        },
        {
          "internalType": "uint256",
          "name": "amount",
          "type": "uint256"
        }
      ],
      "name": "approve",
      "outputs": [
        {
          "internalType": "bool",
          "name": "",
          "type": "bool"
        }
      ],
      "stateMutability": "nonpayable",
      "type": "function"
    },
    {
      "inputs": [
        {
          "internalType": "address",
          "name": "account",
          "type": "address"
        }
      ],
      "name": "balanceOf",
      "outputs": [
        {
          "internalType": "uint256",
          "name": "",
          "type": "uint256"
        }
      ],
      "stateMutability": "view",
      "type": "function"
    },
    {
      "inputs": [],
      "name": "claim",
      "outputs": [],
      "stateMutability": "nonpayable",
      "type": "function"
    },
    {
      "inputs": [],
      "name": "decimals",
      "outputs": [
        {
          "internalType": "uint8",
          "name": "",
          "type": "uint8"
        }
      ],
      "stateMutability": "view",
      "type": "function"
    },
    {
      "inputs": [
        {
          "internalType": "address",
          "name": "spender",
          "type": "address"
        },
        {
          "internalType": "uint256",
          "name": "subtractedValue",
          "type": "uint256"
        }
      ],
      "name": "decreaseAllowance",
      "outputs": [
        {
          "internalType": "bool",
          "name": "",
          "type": "bool"
        }
      ],
      "stateMutability": "nonpayable",
      "type": "function"
    },
    {
      "inputs": [
        {
          "internalType": "address",
          "name": "spender",
          "type": "address"
        },
        {
          "internalType": "uint256",
          "name": "addedValue",
          "type": "uint256"
        }
      ],
      "name": "increaseAllowance",
      "outputs": [
        {
          "internalType": "bool",
          "name": "",
          "type": "bool"
        }
      ],
      "stateMutability": "nonpayable",
      "type": "function"
    },
    {
      "inputs": [],
      "name": "maxTotalSupply",
      "outputs": [
        {
          "internalType": "uint256",
          "name": "",
          "type": "uint256"
        }
      ],
      "stateMutability": "view",
      "type": "function"
    },
    {
      "inputs": [
        {
          "internalType": "uint256",
          "name": "_requestedAmount",
          "type": "uint256"
        }
      ],
      "name": "mint",
      "outputs": [],
      "stateMutability": "payable",
      "type": "function"
    },
    {
      "inputs": [],
      "name": "name",
      "outputs": [
        {
          "internalType": "string",
          "name": "",
          "type": "string"
        }
      ],
      "stateMutability": "view",
      "type": "function"
    },
    {
      "inputs": [],
      "name": "owner",
      "outputs": [
        {
          "internalType": "address",
          "name": "",
          "type": "address"
        }
      ],
      "stateMutability": "view",
      "type": "function"
    },
    {
      "inputs": [],
      "name": "renounceOwnership",
      "outputs": [],
      "stateMutability": "nonpayable",
      "type": "function"
    },
    {
      "inputs": [],
      "name": "symbol",
      "outputs": [
        {
          "internalType": "string",
          "name": "",
          "type": "string"
        }
      ],
      "stateMutability": "view",
      "type": "function"
    },
    {
      "inputs": [
        {
          "internalType": "uint256",
          "name": "",
          "type": "uint256"
        }
      ],
      "name": "tokenIdsClaimed",
      "outputs": [
        {
          "internalType": "bool",
          "name": "",
          "type": "bool"
        }
      ],
      "stateMutability": "view",
      "type": "function"
    },
    {
      "inputs": [],
      "name": "tokenPrice",
      "outputs": [
        {
          "internalType": "uint256",
          "name": "",
          "type": "uint256"
        }
      ],
      "stateMutability": "view",
      "type": "function"
    },
    {
      "inputs": [],
      "name": "tokensPerNFT",
      "outputs": [
        {
          "internalType": "uint256",
          "name": "",
          "type": "uint256"
        }
      ],
      "stateMutability": "view",
      "type": "function"
    },
    {
      "inputs": [],
      "name": "totalSupply",
      "outputs": [
        {
          "internalType": "uint256",
          "name": "",
          "type": "uint256"
        }
      ],
      "stateMutability": "view",
      "type": "function"
    },
    {
      "inputs": [
        {
          "internalType": "address",
          "name": "to",
          "type": "address"
        },
        {
          "internalType": "uint256",
          "name": "amount",
          "type": "uint256"
        }
      ],
      "name": "transfer",
      "outputs": [
        {
          "internalType": "bool",
          "name": "",
          "type": "bool"
        }
      ],
      "stateMutability": "nonpayable",
      "type": "function"
    },
    {
      "inputs": [
        {
          "internalType": "address",
          "name": "from",
          "type": "address"
        },
        {
          "internalType": "address",
          "name": "to",
          "type": "address"
        },
        {
          "internalType": "uint256",
          "name": "amount",
          "type": "uint256"
        }
      ],
      "name": "transferFrom",
      "outputs": [
        {
          "internalType": "bool",
          "name": "",
          "type": "bool"
        }
      ],
      "stateMutability": "nonpayable",
      "type": "function"
    },
    {
      "inputs": [
        {
          "internalType": "address",
          "name": "newOwner",
          "type": "address"
        }
      ],
      "name": "transferOwnership",
      "outputs": [],
      "stateMutability": "nonpayable",
      "type": "function"
    },
    {
      "inputs": [],
      "name": "withdraw",
      "outputs": [],
      "stateMutability": "nonpayable",
      "type": "function"
    },
    {
      "stateMutability": "payable",
      "type": "receive"
    }
  ],
  "bytecode": "0x60806040523480156200001157600080fd5b50604051620026b5380380620026b5833981810160405281019062000037919062000327565b6040518060400160405280601081526020017f4a6f686e6e7954696d6520546f6b656e000000000000000000000000000000008152506040518060400160405280600381526020017f4a545400000000000000000000000000000000000000000000000000000000008152508160039080519060200190620000bb9291906200020d565b508060049080519060200190620000d49291906200020d565b505050620000f7620000eb6200013f60201b60201c565b6200014760201b60201c565b80600660006101000a81548173ffffffffffffffffffffffffffffffffffffffff021916908373ffffffffffffffffffffffffffffffffffffffff16021790555050620003be565b600033905090565b6000600560009054906101000a900473ffffffffffffffffffffffffffffffffffffffff16905081600560006101000a81548173ffffffffffffffffffffffffffffffffffffffff021916908373ffffffffffffffffffffffffffffffffffffffff1602179055508173ffffffffffffffffffffffffffffffffffffffff168173ffffffffffffffffffffffffffffffffffffffff167f8be0079c531659141344cd1fd0a4f28419497f9722a3daafe3b4186f6b6457e060405160405180910390a35050565b8280546200021b9062000388565b90600052602060002090601f0160209004810192826200023f57600085556200028b565b82601f106200025a57805160ff19168380011785556200028b565b828001600101855582156200028b579182015b828111156200028a5782518255916020019190600101906200026d565b5b5090506200029a91906200029e565b5090565b5b80821115620002b95760008160009055506001016200029f565b5090565b600080fd5b600073ffffffffffffffffffffffffffffffffffffffff82169050919050565b6000620002ef82620002c2565b9050919050565b6200030181620002e2565b81146200030d57600080fd5b50565b6000815190506200032181620002f6565b92915050565b60006020828403121562000340576200033f620002bd565b5b6000620003508482850162000310565b91505092915050565b7f4e487b7100000000000000000000000000000000000000000000000000000000600052602260045260246000fd5b60006002820490506001821680620003a157607f821691505b60208210811415620003b857620003b762000359565b5b50919050565b6122e780620003ce6000396000f3fe60806040526004361061012e5760003560e01c80635f3690af116100ab57806395d89b411161006f57806395d89b41146103da578063a0712d6814610405578063a457c2d714610421578063a9059cbb1461045e578063dd62ed3e1461049b578063f2fde38b146104d857610135565b80635f3690af146102f357806370a0823114610330578063715018a61461036d5780637ff9b596146103845780638da5cb5b146103af57610135565b8063313ce567116100f2578063313ce56714610232578063395093511461025d5780633ccfd60b1461029a5780634e71d92d146102b15780635afcc2f5146102c857610135565b806306fdde0314610137578063095ea7b31461016257806318160ddd1461019f57806323b872dd146101ca5780632ab4d0521461020757610135565b3661013557005b005b34801561014357600080fd5b5061014c610501565b60405161015991906115d8565b60405180910390f35b34801561016e57600080fd5b5061018960048036038101906101849190611693565b610593565b60405161019691906116ee565b60405180910390f35b3480156101ab57600080fd5b506101b46105b6565b6040516101c19190611718565b60405180910390f35b3480156101d657600080fd5b506101f160048036038101906101ec9190611733565b6105c0565b6040516101fe91906116ee565b60405180910390f35b34801561021357600080fd5b5061021c6105ef565b6040516102299190611718565b60405180910390f35b34801561023e57600080fd5b506102476105fd565b60405161025491906117a2565b60405180910390f35b34801561026957600080fd5b50610284600480360381019061027f9190611693565b610606565b60405161029191906116ee565b60405180910390f35b3480156102a657600080fd5b506102af61063d565b005b3480156102bd57600080fd5b506102c6610707565b005b3480156102d457600080fd5b506102dd6109dd565b6040516102ea9190611718565b60405180910390f35b3480156102ff57600080fd5b5061031a600480360381019061031591906117bd565b6109e9565b60405161032791906116ee565b60405180910390f35b34801561033c57600080fd5b50610357600480360381019061035291906117ea565b610a09565b6040516103649190611718565b60405180910390f35b34801561037957600080fd5b50610382610a51565b005b34801561039057600080fd5b50610399610a65565b6040516103a69190611718565b60405180910390f35b3480156103bb57600080fd5b506103c4610a70565b6040516103d19190611826565b60405180910390f35b3480156103e657600080fd5b506103ef610a9a565b6040516103fc91906115d8565b60405180910390f35b61041f600480360381019061041a91906117bd565b610b2c565b005b34801561042d57600080fd5b5061044860048036038101906104439190611693565b610c0c565b60405161045591906116ee565b60405180910390f35b34801561046a57600080fd5b5061048560048036038101906104809190611693565b610c83565b60405161049291906116ee565b60405180910390f35b3480156104a757600080fd5b506104c260048036038101906104bd9190611841565b610ca6565b6040516104cf9190611718565b60405180910390f35b3480156104e457600080fd5b506104ff60048036038101906104fa91906117ea565b610d2d565b005b606060038054610510906118b0565b80601f016020809104026020016040519081016040528092919081815260200182805461053c906118b0565b80156105895780601f1061055e57610100808354040283529160200191610589565b820191906000526020600020905b81548152906001019060200180831161056c57829003601f168201915b5050505050905090565b60008061059e610db1565b90506105ab818585610db9565b600191505092915050565b6000600254905090565b6000806105cb610db1565b90506105d8858285610f84565b6105e3858585611010565b60019150509392505050565b69021e19e0c9bab240000081565b60006012905090565b600080610611610db1565b90506106328185856106238589610ca6565b61062d9190611911565b610db9565b600191505092915050565b610645611291565b600061064f610a70565b9050600047905060008273ffffffffffffffffffffffffffffffffffffffff168260405161067c90611998565b60006040518083038185875af1925050503d80600081146106b9576040519150601f19603f3d011682016040523d82523d6000602084013e6106be565b606091505b5050905080610702576040517f08c379a00000000000000000000000000000000000000000000000000000000081526004016106f9906119f9565b60405180910390fd5b505050565b60003390506000600660009054906101000a900473ffffffffffffffffffffffffffffffffffffffff1673ffffffffffffffffffffffffffffffffffffffff166370a08231836040518263ffffffff1660e01b81526004016107699190611826565b602060405180830381865afa158015610786573d6000803e3d6000fd5b505050506040513d601f19601f820116820180604052508101906107aa9190611a2e565b9050600081116107ef576040517f08c379a00000000000000000000000000000000000000000000000000000000081526004016107e690611acd565b60405180910390fd5b6000805b82811015610912576000600660009054906101000a900473ffffffffffffffffffffffffffffffffffffffff1673ffffffffffffffffffffffffffffffffffffffff16632f745c5986846040518363ffffffff1660e01b815260040161085a929190611aed565b602060405180830381865afa158015610877573d6000803e3d6000fd5b505050506040513d601f19601f8201168201806040525081019061089b9190611a2e565b90506007600082815260200190815260200160002060009054906101000a900460ff166108fe576001836108cf9190611911565b925060016007600083815260200190815260200160002060006101000a81548160ff0219169083151502179055505b50808061090a90611b16565b9150506107f3565b5060008111610956576040517f08c379a000000000000000000000000000000000000000000000000000000000815260040161094d90611bd1565b60405180910390fd5b6000678ac7230489e800008261096c9190611bf1565b905069021e19e0c9bab2400000816109826105b6565b61098c9190611911565b11156109cd576040517f08c379a00000000000000000000000000000000000000000000000000000000081526004016109c490611cbd565b60405180910390fd5b6109d7338261130f565b50505050565b678ac7230489e8000081565b60076020528060005260406000206000915054906101000a900460ff1681565b60008060008373ffffffffffffffffffffffffffffffffffffffff1673ffffffffffffffffffffffffffffffffffffffff168152602001908152602001600020549050919050565b610a59611291565b610a63600061146f565b565b66038d7ea4c6800081565b6000600560009054906101000a900473ffffffffffffffffffffffffffffffffffffffff16905090565b606060048054610aa9906118b0565b80601f0160208091040260200160405190810160405280929190818152602001828054610ad5906118b0565b8015610b225780601f10610af757610100808354040283529160200191610b22565b820191906000526020600020905b815481529060010190602001808311610b0557829003601f168201915b5050505050905090565b60008166038d7ea4c68000610b419190611bf1565b905080341015610b86576040517f08c379a0000000000000000000000000000000000000000000000000000000008152600401610b7d90611d4f565b60405180910390fd5b6000670de0b6b3a764000083610b9c9190611bf1565b905069021e19e0c9bab240000081610bb26105b6565b610bbc9190611911565b1115610bfd576040517f08c379a0000000000000000000000000000000000000000000000000000000008152600401610bf490611cbd565b60405180910390fd5b610c07338261130f565b505050565b600080610c17610db1565b90506000610c258286610ca6565b905083811015610c6a576040517f08c379a0000000000000000000000000000000000000000000000000000000008152600401610c6190611de1565b60405180910390fd5b610c778286868403610db9565b60019250505092915050565b600080610c8e610db1565b9050610c9b818585611010565b600191505092915050565b6000600160008473ffffffffffffffffffffffffffffffffffffffff1673ffffffffffffffffffffffffffffffffffffffff16815260200190815260200160002060008373ffffffffffffffffffffffffffffffffffffffff1673ffffffffffffffffffffffffffffffffffffffff16815260200190815260200160002054905092915050565b610d35611291565b600073ffffffffffffffffffffffffffffffffffffffff168173ffffffffffffffffffffffffffffffffffffffff161415610da5576040517f08c379a0000000000000000000000000000000000000000000000000000000008152600401610d9c90611e73565b60405180910390fd5b610dae8161146f565b50565b600033905090565b600073ffffffffffffffffffffffffffffffffffffffff168373ffffffffffffffffffffffffffffffffffffffff161415610e29576040517f08c379a0000000000000000000000000000000000000000000000000000000008152600401610e2090611f05565b60405180910390fd5b600073ffffffffffffffffffffffffffffffffffffffff168273ffffffffffffffffffffffffffffffffffffffff161415610e99576040517f08c379a0000000000000000000000000000000000000000000000000000000008152600401610e9090611f97565b60405180910390fd5b80600160008573ffffffffffffffffffffffffffffffffffffffff1673ffffffffffffffffffffffffffffffffffffffff16815260200190815260200160002060008473ffffffffffffffffffffffffffffffffffffffff1673ffffffffffffffffffffffffffffffffffffffff168152602001908152602001600020819055508173ffffffffffffffffffffffffffffffffffffffff168373ffffffffffffffffffffffffffffffffffffffff167f8c5be1e5ebec7d5bd14f71427d1e84f3dd0314c0f7b2291e5b200ac8c7c3b92583604051610f779190611718565b60405180910390a3505050565b6000610f908484610ca6565b90507fffffffffffffffffffffffffffffffffffffffffffffffffffffffffffffffff811461100a5781811015610ffc576040517f08c379a0000000000000000000000000000000000000000000000000000000008152600401610ff390612003565b60405180910390fd5b6110098484848403610db9565b5b50505050565b600073ffffffffffffffffffffffffffffffffffffffff168373ffffffffffffffffffffffffffffffffffffffff161415611080576040517f08c379a000000000000000000000000000000000000000000000000000000000815260040161107790612095565b60405180910390fd5b600073ffffffffffffffffffffffffffffffffffffffff168273ffffffffffffffffffffffffffffffffffffffff1614156110f0576040517f08c379a00000000000000000000000000000000000000000000000000000000081526004016110e790612127565b60405180910390fd5b6110fb838383611535565b60008060008573ffffffffffffffffffffffffffffffffffffffff1673ffffffffffffffffffffffffffffffffffffffff16815260200190815260200160002054905081811015611181576040517f08c379a0000000000000000000000000000000000000000000000000000000008152600401611178906121b9565b60405180910390fd5b8181036000808673ffffffffffffffffffffffffffffffffffffffff1673ffffffffffffffffffffffffffffffffffffffff16815260200190815260200160002081905550816000808573ffffffffffffffffffffffffffffffffffffffff1673ffffffffffffffffffffffffffffffffffffffff16815260200190815260200160002060008282546112149190611911565b925050819055508273ffffffffffffffffffffffffffffffffffffffff168473ffffffffffffffffffffffffffffffffffffffff167fddf252ad1be2c89b69c2b068fc378daa952ba7f163c4a11628f55a4df523b3ef846040516112789190611718565b60405180910390a361128b84848461153a565b50505050565b611299610db1565b73ffffffffffffffffffffffffffffffffffffffff166112b7610a70565b73ffffffffffffffffffffffffffffffffffffffff161461130d576040517f08c379a000000000000000000000000000000000000000000000000000000000815260040161130490612225565b60405180910390fd5b565b600073ffffffffffffffffffffffffffffffffffffffff168273ffffffffffffffffffffffffffffffffffffffff16141561137f576040517f08c379a000000000000000000000000000000000000000000000000000000000815260040161137690612291565b60405180910390fd5b61138b60008383611535565b806002600082825461139d9190611911565b92505081905550806000808473ffffffffffffffffffffffffffffffffffffffff1673ffffffffffffffffffffffffffffffffffffffff16815260200190815260200160002060008282546113f29190611911565b925050819055508173ffffffffffffffffffffffffffffffffffffffff16600073ffffffffffffffffffffffffffffffffffffffff167fddf252ad1be2c89b69c2b068fc378daa952ba7f163c4a11628f55a4df523b3ef836040516114579190611718565b60405180910390a361146b6000838361153a565b5050565b6000600560009054906101000a900473ffffffffffffffffffffffffffffffffffffffff16905081600560006101000a81548173ffffffffffffffffffffffffffffffffffffffff021916908373ffffffffffffffffffffffffffffffffffffffff1602179055508173ffffffffffffffffffffffffffffffffffffffff168173ffffffffffffffffffffffffffffffffffffffff167f8be0079c531659141344cd1fd0a4f28419497f9722a3daafe3b4186f6b6457e060405160405180910390a35050565b505050565b505050565b600081519050919050565b600082825260208201905092915050565b60005b8381101561157957808201518184015260208101905061155e565b83811115611588576000848401525b50505050565b6000601f19601f8301169050919050565b60006115aa8261153f565b6115b4818561154a565b93506115c481856020860161155b565b6115cd8161158e565b840191505092915050565b600060208201905081810360008301526115f2818461159f565b905092915050565b600080fd5b600073ffffffffffffffffffffffffffffffffffffffff82169050919050565b600061162a826115ff565b9050919050565b61163a8161161f565b811461164557600080fd5b50565b60008135905061165781611631565b92915050565b6000819050919050565b6116708161165d565b811461167b57600080fd5b50565b60008135905061168d81611667565b92915050565b600080604083850312156116aa576116a96115fa565b5b60006116b885828601611648565b92505060206116c98582860161167e565b9150509250929050565b60008115159050919050565b6116e8816116d3565b82525050565b600060208201905061170360008301846116df565b92915050565b6117128161165d565b82525050565b600060208201905061172d6000830184611709565b92915050565b60008060006060848603121561174c5761174b6115fa565b5b600061175a86828701611648565b935050602061176b86828701611648565b925050604061177c8682870161167e565b9150509250925092565b600060ff82169050919050565b61179c81611786565b82525050565b60006020820190506117b76000830184611793565b92915050565b6000602082840312156117d3576117d26115fa565b5b60006117e18482850161167e565b91505092915050565b600060208284031215611800576117ff6115fa565b5b600061180e84828501611648565b91505092915050565b6118208161161f565b82525050565b600060208201905061183b6000830184611817565b92915050565b60008060408385031215611858576118576115fa565b5b600061186685828601611648565b925050602061187785828601611648565b9150509250929050565b7f4e487b7100000000000000000000000000000000000000000000000000000000600052602260045260246000fd5b600060028204905060018216806118c857607f821691505b602082108114156118dc576118db611881565b5b50919050565b7f4e487b7100000000000000000000000000000000000000000000000000000000600052601160045260246000fd5b600061191c8261165d565b91506119278361165d565b9250827fffffffffffffffffffffffffffffffffffffffffffffffffffffffffffffffff0382111561195c5761195b6118e2565b5b828201905092915050565b600081905092915050565b50565b6000611982600083611967565b915061198d82611972565b600082019050919050565b60006119a382611975565b9150819050919050565b7f4661696c656420746f2077697468647261772045544800000000000000000000600082015250565b60006119e360168361154a565b91506119ee826119ad565b602082019050919050565b60006020820190508181036000830152611a12816119d6565b9050919050565b600081519050611a2881611667565b92915050565b600060208284031215611a4457611a436115fa565b5b6000611a5284828501611a19565b91505092915050565b7f596f7520646f6e2774206f776e20616e79204a6f686e6e7954696d65204e465460008201527f7300000000000000000000000000000000000000000000000000000000000000602082015250565b6000611ab760218361154a565b9150611ac282611a5b565b604082019050919050565b60006020820190508181036000830152611ae681611aaa565b9050919050565b6000604082019050611b026000830185611817565b611b0f6020830184611709565b9392505050565b6000611b218261165d565b91507fffffffffffffffffffffffffffffffffffffffffffffffffffffffffffffffff821415611b5457611b536118e2565b5b600182019050919050565b7f596f7527766520616c726561647920636c61696d656420616c6c20746865207460008201527f6f6b656e7320666f7220796f7572204e46547300000000000000000000000000602082015250565b6000611bbb60338361154a565b9150611bc682611b5f565b604082019050919050565b60006020820190508181036000830152611bea81611bae565b9050919050565b6000611bfc8261165d565b9150611c078361165d565b9250817fffffffffffffffffffffffffffffffffffffffffffffffffffffffffffffffff0483118215151615611c4057611c3f6118e2565b5b828202905092915050565b7f4578636565647320746865206d617820746f74616c20737570706c792061766160008201527f696c61626c652e00000000000000000000000000000000000000000000000000602082015250565b6000611ca760278361154a565b9150611cb282611c4b565b604082019050919050565b60006020820190508181036000830152611cd681611c9a565b9050919050565b7f4e65656420746f2073656e64206d6f7265204554482e203120746f6b656e203d60008201527f20302e303031204554482e000000000000000000000000000000000000000000602082015250565b6000611d39602b8361154a565b9150611d4482611cdd565b604082019050919050565b60006020820190508181036000830152611d6881611d2c565b9050919050565b7f45524332303a2064656372656173656420616c6c6f77616e63652062656c6f7760008201527f207a65726f000000000000000000000000000000000000000000000000000000602082015250565b6000611dcb60258361154a565b9150611dd682611d6f565b604082019050919050565b60006020820190508181036000830152611dfa81611dbe565b9050919050565b7f4f776e61626c653a206e6577206f776e657220697320746865207a65726f206160008201527f6464726573730000000000000000000000000000000000000000000000000000602082015250565b6000611e5d60268361154a565b9150611e6882611e01565b604082019050919050565b60006020820190508181036000830152611e8c81611e50565b9050919050565b7f45524332303a20617070726f76652066726f6d20746865207a65726f2061646460008201527f7265737300000000000000000000000000000000000000000000000000000000602082015250565b6000611eef60248361154a565b9150611efa82611e93565b604082019050919050565b60006020820190508181036000830152611f1e81611ee2565b9050919050565b7f45524332303a20617070726f766520746f20746865207a65726f20616464726560008201527f7373000000000000000000000000000000000000000000000000000000000000602082015250565b6000611f8160228361154a565b9150611f8c82611f25565b604082019050919050565b60006020820190508181036000830152611fb081611f74565b9050919050565b7f45524332303a20696e73756666696369656e7420616c6c6f77616e6365000000600082015250565b6000611fed601d8361154a565b9150611ff882611fb7565b602082019050919050565b6000602082019050818103600083015261201c81611fe0565b9050919050565b7f45524332303a207472616e736665722066726f6d20746865207a65726f20616460008201527f6472657373000000000000000000000000000000000000000000000000000000602082015250565b600061207f60258361154a565b915061208a82612023565b604082019050919050565b600060208201905081810360008301526120ae81612072565b9050919050565b7f45524332303a207472616e7366657220746f20746865207a65726f206164647260008201527f6573730000000000000000000000000000000000000000000000000000000000602082015250565b600061211160238361154a565b915061211c826120b5565b604082019050919050565b6000602082019050818103600083015261214081612104565b9050919050565b7f45524332303a207472616e7366657220616d6f756e742065786365656473206260008201527f616c616e63650000000000000000000000000000000000000000000000000000602082015250565b60006121a360268361154a565b91506121ae82612147565b604082019050919050565b600060208201905081810360008301526121d281612196565b9050919050565b7f4f776e61626c653a2063616c6c6572206973206e6f7420746865206f776e6572600082015250565b600061220f60208361154a565b915061221a826121d9565b602082019050919050565b6000602082019050818103600083015261223e81612202565b9050919050565b7f45524332303a206d696e7420746f20746865207a65726f206164647265737300600082015250565b600061227b601f8361154a565b915061228682612245565b602082019050919050565b600060208201905081810360008301526122aa8161226e565b905091905056fea264697066735822122008bedc78fe31705787f0f7f943ab6356a7f48d0ebca010acdc5fcddf0bc3150664736f6c634300080a0033",
  "linkReferences": {},
  "deployedLinkReferences": {}
}