{
  "_format": "hh-sol-artifact-1",
  "contractName": "JohnnyTimeToken",
  "sourceName": "contracts/JohnnyTimeToken.sol",
  "abi": [
    {
      "inputs": [
        {
          "internalType": "address",
          "name": "_johnnyTimeNFTAddress",
          "type": "address"
        }
      ],
      "stateMutability": "nonpayable",
      "type": "constructor"
    },
    {
      "anonymous": false,
      "inputs": [
        {
          "indexed": true,
          "internalType": "address",
          "name": "owner",
          "type": "address"
        },
        {
          "indexed": true,
          "internalType": "address",
          "name": "spender",
          "type": "address"
        },
        {
          "indexed": false,
          "internalType": "uint256",
          "name": "value",
          "type": "uint256"
        }
      ],
      "name": "Approval",
      "type": "event"
    },
    {
      "anonymous": false,
      "inputs": [
        {
          "indexed": true,
          "internalType": "address",
          "name": "previousOwner",
          "type": "address"
        },
        {
          "indexed": true,
          "internalType": "address",
          "name": "newOwner",
          "type": "address"
        }
      ],
      "name": "OwnershipTransferred",
      "type": "event"
    },
    {
      "anonymous": false,
      "inputs": [
        {
          "indexed": true,
          "internalType": "address",
          "name": "from",
          "type": "address"
        },
        {
          "indexed": true,
          "internalType": "address",
          "name": "to",
          "type": "address"
        },
        {
          "indexed": false,
          "internalType": "uint256",
          "name": "value",
          "type": "uint256"
        }
      ],
      "name": "Transfer",
      "type": "event"
    },
    {
      "inputs": [
        {
          "internalType": "address",
          "name": "owner",
          "type": "address"
        },
        {
          "internalType": "address",
          "name": "spender",
          "type": "address"
        }
      ],
      "name": "allowance",
      "outputs": [
        {
          "internalType": "uint256",
          "name": "",
          "type": "uint256"
        }
      ],
      "stateMutability": "view",
      "type": "function"
    },
    {
      "inputs": [
        {
          "internalType": "address",
          "name": "spender",
          "type": "address"
        },
        {
          "internalType": "uint256",
          "name": "amount",
          "type": "uint256"
        }
      ],
      "name": "approve",
      "outputs": [
        {
          "internalType": "bool",
          "name": "",
          "type": "bool"
        }
      ],
      "stateMutability": "nonpayable",
      "type": "function"
    },
    {
      "inputs": [
        {
          "internalType": "address",
          "name": "account",
          "type": "address"
        }
      ],
      "name": "balanceOf",
      "outputs": [
        {
          "internalType": "uint256",
          "name": "",
          "type": "uint256"
        }
      ],
      "stateMutability": "view",
      "type": "function"
    },
    {
      "inputs": [],
      "name": "decimals",
      "outputs": [
        {
          "internalType": "uint8",
          "name": "",
          "type": "uint8"
        }
      ],
      "stateMutability": "view",
      "type": "function"
    },
    {
      "inputs": [
        {
          "internalType": "address",
          "name": "spender",
          "type": "address"
        },
        {
          "internalType": "uint256",
          "name": "subtractedValue",
          "type": "uint256"
        }
      ],
      "name": "decreaseAllowance",
      "outputs": [
        {
          "internalType": "bool",
          "name": "",
          "type": "bool"
        }
      ],
      "stateMutability": "nonpayable",
      "type": "function"
    },
    {
      "inputs": [
        {
          "internalType": "address",
          "name": "spender",
          "type": "address"
        },
        {
          "internalType": "uint256",
          "name": "addedValue",
          "type": "uint256"
        }
      ],
      "name": "increaseAllowance",
      "outputs": [
        {
          "internalType": "bool",
          "name": "",
          "type": "bool"
        }
      ],
      "stateMutability": "nonpayable",
      "type": "function"
    },
    {
      "inputs": [],
      "name": "maxTotalSupply",
      "outputs": [
        {
          "internalType": "uint256",
          "name": "",
          "type": "uint256"
        }
      ],
      "stateMutability": "view",
      "type": "function"
    },
    {
      "inputs": [],
      "name": "name",
      "outputs": [
        {
          "internalType": "string",
          "name": "",
          "type": "string"
        }
      ],
      "stateMutability": "view",
      "type": "function"
    },
    {
      "inputs": [],
      "name": "owner",
      "outputs": [
        {
          "internalType": "address",
          "name": "",
          "type": "address"
        }
      ],
      "stateMutability": "view",
      "type": "function"
    },
    {
      "inputs": [],
      "name": "renounceOwnership",
      "outputs": [],
      "stateMutability": "nonpayable",
      "type": "function"
    },
    {
      "inputs": [],
      "name": "symbol",
      "outputs": [
        {
          "internalType": "string",
          "name": "",
          "type": "string"
        }
      ],
      "stateMutability": "view",
      "type": "function"
    },
    {
      "inputs": [
        {
          "internalType": "uint256",
          "name": "",
          "type": "uint256"
        }
      ],
      "name": "tokenIdsClaimed",
      "outputs": [
        {
          "internalType": "bool",
          "name": "",
          "type": "bool"
        }
      ],
      "stateMutability": "view",
      "type": "function"
    },
    {
      "inputs": [],
      "name": "tokenPrice",
      "outputs": [
        {
          "internalType": "uint256",
          "name": "",
          "type": "uint256"
        }
      ],
      "stateMutability": "view",
      "type": "function"
    },
    {
      "inputs": [],
      "name": "tokensPerNFT",
      "outputs": [
        {
          "internalType": "uint256",
          "name": "",
          "type": "uint256"
        }
      ],
      "stateMutability": "view",
      "type": "function"
    },
    {
      "inputs": [],
      "name": "totalSupply",
      "outputs": [
        {
          "internalType": "uint256",
          "name": "",
          "type": "uint256"
        }
      ],
      "stateMutability": "view",
      "type": "function"
    },
    {
      "inputs": [
        {
          "internalType": "address",
          "name": "to",
          "type": "address"
        },
        {
          "internalType": "uint256",
          "name": "amount",
          "type": "uint256"
        }
      ],
      "name": "transfer",
      "outputs": [
        {
          "internalType": "bool",
          "name": "",
          "type": "bool"
        }
      ],
      "stateMutability": "nonpayable",
      "type": "function"
    },
    {
      "inputs": [
        {
          "internalType": "address",
          "name": "from",
          "type": "address"
        },
        {
          "internalType": "address",
          "name": "to",
          "type": "address"
        },
        {
          "internalType": "uint256",
          "name": "amount",
          "type": "uint256"
        }
      ],
      "name": "transferFrom",
      "outputs": [
        {
          "internalType": "bool",
          "name": "",
          "type": "bool"
        }
      ],
      "stateMutability": "nonpayable",
      "type": "function"
    },
    {
      "inputs": [
        {
          "internalType": "address",
          "name": "newOwner",
          "type": "address"
        }
      ],
      "name": "transferOwnership",
      "outputs": [],
      "stateMutability": "nonpayable",
      "type": "function"
    }
  ],
  "bytecode": "0x60806040523480156200001157600080fd5b5060405162001b1138038062001b11833981810160405281019062000037919062000327565b6040518060400160405280601081526020017f4a6f686e6e7954696d6520546f6b656e000000000000000000000000000000008152506040518060400160405280600381526020017f4a545400000000000000000000000000000000000000000000000000000000008152508160039080519060200190620000bb9291906200020d565b508060049080519060200190620000d49291906200020d565b505050620000f7620000eb6200013f60201b60201c565b6200014760201b60201c565b80600660006101000a81548173ffffffffffffffffffffffffffffffffffffffff021916908373ffffffffffffffffffffffffffffffffffffffff16021790555050620003be565b600033905090565b6000600560009054906101000a900473ffffffffffffffffffffffffffffffffffffffff16905081600560006101000a81548173ffffffffffffffffffffffffffffffffffffffff021916908373ffffffffffffffffffffffffffffffffffffffff1602179055508173ffffffffffffffffffffffffffffffffffffffff168173ffffffffffffffffffffffffffffffffffffffff167f8be0079c531659141344cd1fd0a4f28419497f9722a3daafe3b4186f6b6457e060405160405180910390a35050565b8280546200021b9062000388565b90600052602060002090601f0160209004810192826200023f57600085556200028b565b82601f106200025a57805160ff19168380011785556200028b565b828001600101855582156200028b579182015b828111156200028a5782518255916020019190600101906200026d565b5b5090506200029a91906200029e565b5090565b5b80821115620002b95760008160009055506001016200029f565b5090565b600080fd5b600073ffffffffffffffffffffffffffffffffffffffff82169050919050565b6000620002ef82620002c2565b9050919050565b6200030181620002e2565b81146200030d57600080fd5b50565b6000815190506200032181620002f6565b92915050565b60006020828403121562000340576200033f620002bd565b5b6000620003508482850162000310565b91505092915050565b7f4e487b7100000000000000000000000000000000000000000000000000000000600052602260045260246000fd5b60006002820490506001821680620003a157607f821691505b60208210811415620003b857620003b762000359565b5b50919050565b61174380620003ce6000396000f3fe608060405234801561001057600080fd5b50600436106101165760003560e01c806370a08231116100a257806395d89b411161007157806395d89b41146102e7578063a457c2d714610305578063a9059cbb14610335578063dd62ed3e14610365578063f2fde38b1461039557610116565b806370a0823114610271578063715018a6146102a15780637ff9b596146102ab5780638da5cb5b146102c957610116565b80632ab4d052116100e95780632ab4d052146101b7578063313ce567146101d557806339509351146101f35780635afcc2f5146102235780635f3690af1461024157610116565b806306fdde031461011b578063095ea7b31461013957806318160ddd1461016957806323b872dd14610187575b600080fd5b6101236103b1565b6040516101309190610ea8565b60405180910390f35b610153600480360381019061014e9190610f63565b610443565b6040516101609190610fbe565b60405180910390f35b610171610466565b60405161017e9190610fe8565b60405180910390f35b6101a1600480360381019061019c9190611003565b610470565b6040516101ae9190610fbe565b60405180910390f35b6101bf61049f565b6040516101cc9190610fe8565b60405180910390f35b6101dd6104ad565b6040516101ea9190611072565b60405180910390f35b61020d60048036038101906102089190610f63565b6104b6565b60405161021a9190610fbe565b60405180910390f35b61022b6104ed565b6040516102389190610fe8565b60405180910390f35b61025b6004803603810190610256919061108d565b6104f9565b6040516102689190610fbe565b60405180910390f35b61028b600480360381019061028691906110ba565b610519565b6040516102989190610fe8565b60405180910390f35b6102a9610561565b005b6102b3610575565b6040516102c09190610fe8565b60405180910390f35b6102d1610580565b6040516102de91906110f6565b60405180910390f35b6102ef6105aa565b6040516102fc9190610ea8565b60405180910390f35b61031f600480360381019061031a9190610f63565b61063c565b60405161032c9190610fbe565b60405180910390f35b61034f600480360381019061034a9190610f63565b6106b3565b60405161035c9190610fbe565b60405180910390f35b61037f600480360381019061037a9190611111565b6106d6565b60405161038c9190610fe8565b60405180910390f35b6103af60048036038101906103aa91906110ba565b61075d565b005b6060600380546103c090611180565b80601f01602080910402602001604051908101604052809291908181526020018280546103ec90611180565b80156104395780601f1061040e57610100808354040283529160200191610439565b820191906000526020600020905b81548152906001019060200180831161041c57829003601f168201915b5050505050905090565b60008061044e6107e1565b905061045b8185856107e9565b600191505092915050565b6000600254905090565b60008061047b6107e1565b90506104888582856109b4565b610493858585610a40565b60019150509392505050565b69021e19e0c9bab240000081565b60006012905090565b6000806104c16107e1565b90506104e28185856104d385896106d6565b6104dd91906111e1565b6107e9565b600191505092915050565b678ac7230489e8000081565b60076020528060005260406000206000915054906101000a900460ff1681565b60008060008373ffffffffffffffffffffffffffffffffffffffff1673ffffffffffffffffffffffffffffffffffffffff168152602001908152602001600020549050919050565b610569610cc1565b6105736000610d3f565b565b66038d7ea4c6800081565b6000600560009054906101000a900473ffffffffffffffffffffffffffffffffffffffff16905090565b6060600480546105b990611180565b80601f01602080910402602001604051908101604052809291908181526020018280546105e590611180565b80156106325780601f1061060757610100808354040283529160200191610632565b820191906000526020600020905b81548152906001019060200180831161061557829003601f168201915b5050505050905090565b6000806106476107e1565b9050600061065582866106d6565b90508381101561069a576040517f08c379a0000000000000000000000000000000000000000000000000000000008152600401610691906112a9565b60405180910390fd5b6106a782868684036107e9565b60019250505092915050565b6000806106be6107e1565b90506106cb818585610a40565b600191505092915050565b6000600160008473ffffffffffffffffffffffffffffffffffffffff1673ffffffffffffffffffffffffffffffffffffffff16815260200190815260200160002060008373ffffffffffffffffffffffffffffffffffffffff1673ffffffffffffffffffffffffffffffffffffffff16815260200190815260200160002054905092915050565b610765610cc1565b600073ffffffffffffffffffffffffffffffffffffffff168173ffffffffffffffffffffffffffffffffffffffff1614156107d5576040517f08c379a00000000000000000000000000000000000000000000000000000000081526004016107cc9061133b565b60405180910390fd5b6107de81610d3f565b50565b600033905090565b600073ffffffffffffffffffffffffffffffffffffffff168373ffffffffffffffffffffffffffffffffffffffff161415610859576040517f08c379a0000000000000000000000000000000000000000000000000000000008152600401610850906113cd565b60405180910390fd5b600073ffffffffffffffffffffffffffffffffffffffff168273ffffffffffffffffffffffffffffffffffffffff1614156108c9576040517f08c379a00000000000000000000000000000000000000000000000000000000081526004016108c09061145f565b60405180910390fd5b80600160008573ffffffffffffffffffffffffffffffffffffffff1673ffffffffffffffffffffffffffffffffffffffff16815260200190815260200160002060008473ffffffffffffffffffffffffffffffffffffffff1673ffffffffffffffffffffffffffffffffffffffff168152602001908152602001600020819055508173ffffffffffffffffffffffffffffffffffffffff168373ffffffffffffffffffffffffffffffffffffffff167f8c5be1e5ebec7d5bd14f71427d1e84f3dd0314c0f7b2291e5b200ac8c7c3b925836040516109a79190610fe8565b60405180910390a3505050565b60006109c084846106d6565b90507fffffffffffffffffffffffffffffffffffffffffffffffffffffffffffffffff8114610a3a5781811015610a2c576040517f08c379a0000000000000000000000000000000000000000000000000000000008152600401610a23906114cb565b60405180910390fd5b610a3984848484036107e9565b5b50505050565b600073ffffffffffffffffffffffffffffffffffffffff168373ffffffffffffffffffffffffffffffffffffffff161415610ab0576040517f08c379a0000000000000000000000000000000000000000000000000000000008152600401610aa79061155d565b60405180910390fd5b600073ffffffffffffffffffffffffffffffffffffffff168273ffffffffffffffffffffffffffffffffffffffff161415610b20576040517f08c379a0000000000000000000000000000000000000000000000000000000008152600401610b17906115ef565b60405180910390fd5b610b2b838383610e05565b60008060008573ffffffffffffffffffffffffffffffffffffffff1673ffffffffffffffffffffffffffffffffffffffff16815260200190815260200160002054905081811015610bb1576040517f08c379a0000000000000000000000000000000000000000000000000000000008152600401610ba890611681565b60405180910390fd5b8181036000808673ffffffffffffffffffffffffffffffffffffffff1673ffffffffffffffffffffffffffffffffffffffff16815260200190815260200160002081905550816000808573ffffffffffffffffffffffffffffffffffffffff1673ffffffffffffffffffffffffffffffffffffffff1681526020019081526020016000206000828254610c4491906111e1565b925050819055508273ffffffffffffffffffffffffffffffffffffffff168473ffffffffffffffffffffffffffffffffffffffff167fddf252ad1be2c89b69c2b068fc378daa952ba7f163c4a11628f55a4df523b3ef84604051610ca89190610fe8565b60405180910390a3610cbb848484610e0a565b50505050565b610cc96107e1565b73ffffffffffffffffffffffffffffffffffffffff16610ce7610580565b73ffffffffffffffffffffffffffffffffffffffff1614610d3d576040517f08c379a0000000000000000000000000000000000000000000000000000000008152600401610d34906116ed565b60405180910390fd5b565b6000600560009054906101000a900473ffffffffffffffffffffffffffffffffffffffff16905081600560006101000a81548173ffffffffffffffffffffffffffffffffffffffff021916908373ffffffffffffffffffffffffffffffffffffffff1602179055508173ffffffffffffffffffffffffffffffffffffffff168173ffffffffffffffffffffffffffffffffffffffff167f8be0079c531659141344cd1fd0a4f28419497f9722a3daafe3b4186f6b6457e060405160405180910390a35050565b505050565b505050565b600081519050919050565b600082825260208201905092915050565b60005b83811015610e49578082015181840152602081019050610e2e565b83811115610e58576000848401525b50505050565b6000601f19601f8301169050919050565b6000610e7a82610e0f565b610e848185610e1a565b9350610e94818560208601610e2b565b610e9d81610e5e565b840191505092915050565b60006020820190508181036000830152610ec28184610e6f565b905092915050565b600080fd5b600073ffffffffffffffffffffffffffffffffffffffff82169050919050565b6000610efa82610ecf565b9050919050565b610f0a81610eef565b8114610f1557600080fd5b50565b600081359050610f2781610f01565b92915050565b6000819050919050565b610f4081610f2d565b8114610f4b57600080fd5b50565b600081359050610f5d81610f37565b92915050565b60008060408385031215610f7a57610f79610eca565b5b6000610f8885828601610f18565b9250506020610f9985828601610f4e565b9150509250929050565b60008115159050919050565b610fb881610fa3565b82525050565b6000602082019050610fd36000830184610faf565b92915050565b610fe281610f2d565b82525050565b6000602082019050610ffd6000830184610fd9565b92915050565b60008060006060848603121561101c5761101b610eca565b5b600061102a86828701610f18565b935050602061103b86828701610f18565b925050604061104c86828701610f4e565b9150509250925092565b600060ff82169050919050565b61106c81611056565b82525050565b60006020820190506110876000830184611063565b92915050565b6000602082840312156110a3576110a2610eca565b5b60006110b184828501610f4e565b91505092915050565b6000602082840312156110d0576110cf610eca565b5b60006110de84828501610f18565b91505092915050565b6110f081610eef565b82525050565b600060208201905061110b60008301846110e7565b92915050565b6000806040838503121561112857611127610eca565b5b600061113685828601610f18565b925050602061114785828601610f18565b9150509250929050565b7f4e487b7100000000000000000000000000000000000000000000000000000000600052602260045260246000fd5b6000600282049050600182168061119857607f821691505b602082108114156111ac576111ab611151565b5b50919050565b7f4e487b7100000000000000000000000000000000000000000000000000000000600052601160045260246000fd5b60006111ec82610f2d565b91506111f783610f2d565b9250827fffffffffffffffffffffffffffffffffffffffffffffffffffffffffffffffff0382111561122c5761122b6111b2565b5b828201905092915050565b7f45524332303a2064656372656173656420616c6c6f77616e63652062656c6f7760008201527f207a65726f000000000000000000000000000000000000000000000000000000602082015250565b6000611293602583610e1a565b915061129e82611237565b604082019050919050565b600060208201905081810360008301526112c281611286565b9050919050565b7f4f776e61626c653a206e6577206f776e657220697320746865207a65726f206160008201527f6464726573730000000000000000000000000000000000000000000000000000602082015250565b6000611325602683610e1a565b9150611330826112c9565b604082019050919050565b6000602082019050818103600083015261135481611318565b9050919050565b7f45524332303a20617070726f76652066726f6d20746865207a65726f2061646460008201527f7265737300000000000000000000000000000000000000000000000000000000602082015250565b60006113b7602483610e1a565b91506113c28261135b565b604082019050919050565b600060208201905081810360008301526113e6816113aa565b9050919050565b7f45524332303a20617070726f766520746f20746865207a65726f20616464726560008201527f7373000000000000000000000000000000000000000000000000000000000000602082015250565b6000611449602283610e1a565b9150611454826113ed565b604082019050919050565b600060208201905081810360008301526114788161143c565b9050919050565b7f45524332303a20696e73756666696369656e7420616c6c6f77616e6365000000600082015250565b60006114b5601d83610e1a565b91506114c08261147f565b602082019050919050565b600060208201905081810360008301526114e4816114a8565b9050919050565b7f45524332303a207472616e736665722066726f6d20746865207a65726f20616460008201527f6472657373000000000000000000000000000000000000000000000000000000602082015250565b6000611547602583610e1a565b9150611552826114eb565b604082019050919050565b600060208201905081810360008301526115768161153a565b9050919050565b7f45524332303a207472616e7366657220746f20746865207a65726f206164647260008201527f6573730000000000000000000000000000000000000000000000000000000000602082015250565b60006115d9602383610e1a565b91506115e48261157d565b604082019050919050565b60006020820190508181036000830152611608816115cc565b9050919050565b7f45524332303a207472616e7366657220616d6f756e742065786365656473206260008201527f616c616e63650000000000000000000000000000000000000000000000000000602082015250565b600061166b602683610e1a565b91506116768261160f565b604082019050919050565b6000602082019050818103600083015261169a8161165e565b9050919050565b7f4f776e61626c653a2063616c6c6572206973206e6f7420746865206f776e6572600082015250565b60006116d7602083610e1a565b91506116e2826116a1565b602082019050919050565b60006020820190508181036000830152611706816116ca565b905091905056fea26469706673582212206516828c94e083db0126ef989e1293952a1615ccce47cb3995881d78f8737d8d64736f6c634300080a0033",
  "linkReferences": {},
  "deployedLinkReferences": {}
}