{
  "_format": "hh-sol-artifact-1",
  "contractName": "JohnnyTimeToken",
  "sourceName": "contracts/JohnnyTimeToken.sol",
  "abi": [
    {
      "inputs": [
        {
          "internalType": "address",
          "name": "_johnnyTimeNFTAddress",
          "type": "address"
        }
      ],
      "stateMutability": "nonpayable",
      "type": "constructor"
    },
    {
      "anonymous": false,
      "inputs": [
        {
          "indexed": true,
          "internalType": "address",
          "name": "owner",
          "type": "address"
        },
        {
          "indexed": true,
          "internalType": "address",
          "name": "spender",
          "type": "address"
        },
        {
          "indexed": false,
          "internalType": "uint256",
          "name": "value",
          "type": "uint256"
        }
      ],
      "name": "Approval",
      "type": "event"
    },
    {
      "anonymous": false,
      "inputs": [
        {
          "indexed": true,
          "internalType": "address",
          "name": "previousOwner",
          "type": "address"
        },
        {
          "indexed": true,
          "internalType": "address",
          "name": "newOwner",
          "type": "address"
        }
      ],
      "name": "OwnershipTransferred",
      "type": "event"
    },
    {
      "anonymous": false,
      "inputs": [
        {
          "indexed": true,
          "internalType": "address",
          "name": "from",
          "type": "address"
        },
        {
          "indexed": true,
          "internalType": "address",
          "name": "to",
          "type": "address"
        },
        {
          "indexed": false,
          "internalType": "uint256",
          "name": "value",
          "type": "uint256"
        }
      ],
      "name": "Transfer",
      "type": "event"
    },
    {
      "inputs": [
        {
          "internalType": "address",
          "name": "owner",
          "type": "address"
        },
        {
          "internalType": "address",
          "name": "spender",
          "type": "address"
        }
      ],
      "name": "allowance",
      "outputs": [
        {
          "internalType": "uint256",
          "name": "",
          "type": "uint256"
        }
      ],
      "stateMutability": "view",
      "type": "function"
    },
    {
      "inputs": [
        {
          "internalType": "address",
          "name": "spender",
          "type": "address"
        },
        {
          "internalType": "uint256",
          "name": "amount",
          "type": "uint256"
        }
      ],
      "name": "approve",
      "outputs": [
        {
          "internalType": "bool",
          "name": "",
          "type": "bool"
        }
      ],
      "stateMutability": "nonpayable",
      "type": "function"
    },
    {
      "inputs": [
        {
          "internalType": "address",
          "name": "account",
          "type": "address"
        }
      ],
      "name": "balanceOf",
      "outputs": [
        {
          "internalType": "uint256",
          "name": "",
          "type": "uint256"
        }
      ],
      "stateMutability": "view",
      "type": "function"
    },
    {
      "inputs": [],
      "name": "claim",
      "outputs": [],
      "stateMutability": "nonpayable",
      "type": "function"
    },
    {
      "inputs": [],
      "name": "decimals",
      "outputs": [
        {
          "internalType": "uint8",
          "name": "",
          "type": "uint8"
        }
      ],
      "stateMutability": "view",
      "type": "function"
    },
    {
      "inputs": [
        {
          "internalType": "address",
          "name": "spender",
          "type": "address"
        },
        {
          "internalType": "uint256",
          "name": "subtractedValue",
          "type": "uint256"
        }
      ],
      "name": "decreaseAllowance",
      "outputs": [
        {
          "internalType": "bool",
          "name": "",
          "type": "bool"
        }
      ],
      "stateMutability": "nonpayable",
      "type": "function"
    },
    {
      "inputs": [
        {
          "internalType": "address",
          "name": "spender",
          "type": "address"
        },
        {
          "internalType": "uint256",
          "name": "addedValue",
          "type": "uint256"
        }
      ],
      "name": "increaseAllowance",
      "outputs": [
        {
          "internalType": "bool",
          "name": "",
          "type": "bool"
        }
      ],
      "stateMutability": "nonpayable",
      "type": "function"
    },
    {
      "inputs": [],
      "name": "maxTotalSupply",
      "outputs": [
        {
          "internalType": "uint256",
          "name": "",
          "type": "uint256"
        }
      ],
      "stateMutability": "view",
      "type": "function"
    },
    {
      "inputs": [
        {
          "internalType": "uint256",
          "name": "_requestedAmount",
          "type": "uint256"
        }
      ],
      "name": "mint",
      "outputs": [],
      "stateMutability": "payable",
      "type": "function"
    },
    {
      "inputs": [],
      "name": "name",
      "outputs": [
        {
          "internalType": "string",
          "name": "",
          "type": "string"
        }
      ],
      "stateMutability": "view",
      "type": "function"
    },
    {
      "inputs": [],
      "name": "owner",
      "outputs": [
        {
          "internalType": "address",
          "name": "",
          "type": "address"
        }
      ],
      "stateMutability": "view",
      "type": "function"
    },
    {
      "inputs": [],
      "name": "renounceOwnership",
      "outputs": [],
      "stateMutability": "nonpayable",
      "type": "function"
    },
    {
      "inputs": [],
      "name": "symbol",
      "outputs": [
        {
          "internalType": "string",
          "name": "",
          "type": "string"
        }
      ],
      "stateMutability": "view",
      "type": "function"
    },
    {
      "inputs": [
        {
          "internalType": "uint256",
          "name": "",
          "type": "uint256"
        }
      ],
      "name": "tokenIdsClaimed",
      "outputs": [
        {
          "internalType": "bool",
          "name": "",
          "type": "bool"
        }
      ],
      "stateMutability": "view",
      "type": "function"
    },
    {
      "inputs": [],
      "name": "tokenPrice",
      "outputs": [
        {
          "internalType": "uint256",
          "name": "",
          "type": "uint256"
        }
      ],
      "stateMutability": "view",
      "type": "function"
    },
    {
      "inputs": [],
      "name": "tokensPerNFT",
      "outputs": [
        {
          "internalType": "uint256",
          "name": "",
          "type": "uint256"
        }
      ],
      "stateMutability": "view",
      "type": "function"
    },
    {
      "inputs": [],
      "name": "totalSupply",
      "outputs": [
        {
          "internalType": "uint256",
          "name": "",
          "type": "uint256"
        }
      ],
      "stateMutability": "view",
      "type": "function"
    },
    {
      "inputs": [
        {
          "internalType": "address",
          "name": "to",
          "type": "address"
        },
        {
          "internalType": "uint256",
          "name": "amount",
          "type": "uint256"
        }
      ],
      "name": "transfer",
      "outputs": [
        {
          "internalType": "bool",
          "name": "",
          "type": "bool"
        }
      ],
      "stateMutability": "nonpayable",
      "type": "function"
    },
    {
      "inputs": [
        {
          "internalType": "address",
          "name": "from",
          "type": "address"
        },
        {
          "internalType": "address",
          "name": "to",
          "type": "address"
        },
        {
          "internalType": "uint256",
          "name": "amount",
          "type": "uint256"
        }
      ],
      "name": "transferFrom",
      "outputs": [
        {
          "internalType": "bool",
          "name": "",
          "type": "bool"
        }
      ],
      "stateMutability": "nonpayable",
      "type": "function"
    },
    {
      "inputs": [
        {
          "internalType": "address",
          "name": "newOwner",
          "type": "address"
        }
      ],
      "name": "transferOwnership",
      "outputs": [],
      "stateMutability": "nonpayable",
      "type": "function"
    }
  ],
  "bytecode": "0x60806040523480156200001157600080fd5b506040516200250f3803806200250f833981810160405281019062000037919062000327565b6040518060400160405280601081526020017f4a6f686e6e7954696d6520546f6b656e000000000000000000000000000000008152506040518060400160405280600381526020017f4a545400000000000000000000000000000000000000000000000000000000008152508160039080519060200190620000bb9291906200020d565b508060049080519060200190620000d49291906200020d565b505050620000f7620000eb6200013f60201b60201c565b6200014760201b60201c565b80600660006101000a81548173ffffffffffffffffffffffffffffffffffffffff021916908373ffffffffffffffffffffffffffffffffffffffff16021790555050620003be565b600033905090565b6000600560009054906101000a900473ffffffffffffffffffffffffffffffffffffffff16905081600560006101000a81548173ffffffffffffffffffffffffffffffffffffffff021916908373ffffffffffffffffffffffffffffffffffffffff1602179055508173ffffffffffffffffffffffffffffffffffffffff168173ffffffffffffffffffffffffffffffffffffffff167f8be0079c531659141344cd1fd0a4f28419497f9722a3daafe3b4186f6b6457e060405160405180910390a35050565b8280546200021b9062000388565b90600052602060002090601f0160209004810192826200023f57600085556200028b565b82601f106200025a57805160ff19168380011785556200028b565b828001600101855582156200028b579182015b828111156200028a5782518255916020019190600101906200026d565b5b5090506200029a91906200029e565b5090565b5b80821115620002b95760008160009055506001016200029f565b5090565b600080fd5b600073ffffffffffffffffffffffffffffffffffffffff82169050919050565b6000620002ef82620002c2565b9050919050565b6200030181620002e2565b81146200030d57600080fd5b50565b6000815190506200032181620002f6565b92915050565b60006020828403121562000340576200033f620002bd565b5b6000620003508482850162000310565b91505092915050565b7f4e487b7100000000000000000000000000000000000000000000000000000000600052602260045260246000fd5b60006002820490506001821680620003a157607f821691505b60208210811415620003b857620003b762000359565b5b50919050565b61214180620003ce6000396000f3fe60806040526004361061011f5760003560e01c806370a08231116100a0578063a0712d6811610064578063a0712d68146103db578063a457c2d7146103f7578063a9059cbb14610434578063dd62ed3e14610471578063f2fde38b146104ae5761011f565b806370a0823114610306578063715018a6146103435780637ff9b5961461035a5780638da5cb5b1461038557806395d89b41146103b05761011f565b8063313ce567116100e7578063313ce5671461021f578063395093511461024a5780634e71d92d146102875780635afcc2f51461029e5780635f3690af146102c95761011f565b806306fdde0314610124578063095ea7b31461014f57806318160ddd1461018c57806323b872dd146101b75780632ab4d052146101f4575b600080fd5b34801561013057600080fd5b506101396104d7565b60405161014691906114e4565b60405180910390f35b34801561015b57600080fd5b506101766004803603810190610171919061159f565b610569565b60405161018391906115fa565b60405180910390f35b34801561019857600080fd5b506101a161058c565b6040516101ae9190611624565b60405180910390f35b3480156101c357600080fd5b506101de60048036038101906101d9919061163f565b610596565b6040516101eb91906115fa565b60405180910390f35b34801561020057600080fd5b506102096105c5565b6040516102169190611624565b60405180910390f35b34801561022b57600080fd5b506102346105d3565b60405161024191906116ae565b60405180910390f35b34801561025657600080fd5b50610271600480360381019061026c919061159f565b6105dc565b60405161027e91906115fa565b60405180910390f35b34801561029357600080fd5b5061029c610613565b005b3480156102aa57600080fd5b506102b36108e9565b6040516102c09190611624565b60405180910390f35b3480156102d557600080fd5b506102f060048036038101906102eb91906116c9565b6108f5565b6040516102fd91906115fa565b60405180910390f35b34801561031257600080fd5b5061032d600480360381019061032891906116f6565b610915565b60405161033a9190611624565b60405180910390f35b34801561034f57600080fd5b5061035861095d565b005b34801561036657600080fd5b5061036f610971565b60405161037c9190611624565b60405180910390f35b34801561039157600080fd5b5061039a61097c565b6040516103a79190611732565b60405180910390f35b3480156103bc57600080fd5b506103c56109a6565b6040516103d291906114e4565b60405180910390f35b6103f560048036038101906103f091906116c9565b610a38565b005b34801561040357600080fd5b5061041e6004803603810190610419919061159f565b610b18565b60405161042b91906115fa565b60405180910390f35b34801561044057600080fd5b5061045b6004803603810190610456919061159f565b610b8f565b60405161046891906115fa565b60405180910390f35b34801561047d57600080fd5b506104986004803603810190610493919061174d565b610bb2565b6040516104a59190611624565b60405180910390f35b3480156104ba57600080fd5b506104d560048036038101906104d091906116f6565b610c39565b005b6060600380546104e6906117bc565b80601f0160208091040260200160405190810160405280929190818152602001828054610512906117bc565b801561055f5780601f106105345761010080835404028352916020019161055f565b820191906000526020600020905b81548152906001019060200180831161054257829003601f168201915b5050505050905090565b600080610574610cbd565b9050610581818585610cc5565b600191505092915050565b6000600254905090565b6000806105a1610cbd565b90506105ae858285610e90565b6105b9858585610f1c565b60019150509392505050565b69021e19e0c9bab240000081565b60006012905090565b6000806105e7610cbd565b90506106088185856105f98589610bb2565b610603919061181d565b610cc5565b600191505092915050565b60003390506000600660009054906101000a900473ffffffffffffffffffffffffffffffffffffffff1673ffffffffffffffffffffffffffffffffffffffff166370a08231836040518263ffffffff1660e01b81526004016106759190611732565b602060405180830381865afa158015610692573d6000803e3d6000fd5b505050506040513d601f19601f820116820180604052508101906106b69190611888565b9050600081116106fb576040517f08c379a00000000000000000000000000000000000000000000000000000000081526004016106f290611927565b60405180910390fd5b6000805b8281101561081e576000600660009054906101000a900473ffffffffffffffffffffffffffffffffffffffff1673ffffffffffffffffffffffffffffffffffffffff16632f745c5986846040518363ffffffff1660e01b8152600401610766929190611947565b602060405180830381865afa158015610783573d6000803e3d6000fd5b505050506040513d601f19601f820116820180604052508101906107a79190611888565b90506007600082815260200190815260200160002060009054906101000a900460ff1661080a576001836107db919061181d565b925060016007600083815260200190815260200160002060006101000a81548160ff0219169083151502179055505b50808061081690611970565b9150506106ff565b5060008111610862576040517f08c379a000000000000000000000000000000000000000000000000000000000815260040161085990611a2b565b60405180910390fd5b6000678ac7230489e80000826108789190611a4b565b905069021e19e0c9bab24000008161088e61058c565b610898919061181d565b11156108d9576040517f08c379a00000000000000000000000000000000000000000000000000000000081526004016108d090611b17565b60405180910390fd5b6108e3338261119d565b50505050565b678ac7230489e8000081565b60076020528060005260406000206000915054906101000a900460ff1681565b60008060008373ffffffffffffffffffffffffffffffffffffffff1673ffffffffffffffffffffffffffffffffffffffff168152602001908152602001600020549050919050565b6109656112fd565b61096f600061137b565b565b66038d7ea4c6800081565b6000600560009054906101000a900473ffffffffffffffffffffffffffffffffffffffff16905090565b6060600480546109b5906117bc565b80601f01602080910402602001604051908101604052809291908181526020018280546109e1906117bc565b8015610a2e5780601f10610a0357610100808354040283529160200191610a2e565b820191906000526020600020905b815481529060010190602001808311610a1157829003601f168201915b5050505050905090565b60008166038d7ea4c68000610a4d9190611a4b565b905080341015610a92576040517f08c379a0000000000000000000000000000000000000000000000000000000008152600401610a8990611ba9565b60405180910390fd5b6000670de0b6b3a764000083610aa89190611a4b565b905069021e19e0c9bab240000081610abe61058c565b610ac8919061181d565b1115610b09576040517f08c379a0000000000000000000000000000000000000000000000000000000008152600401610b0090611b17565b60405180910390fd5b610b13338261119d565b505050565b600080610b23610cbd565b90506000610b318286610bb2565b905083811015610b76576040517f08c379a0000000000000000000000000000000000000000000000000000000008152600401610b6d90611c3b565b60405180910390fd5b610b838286868403610cc5565b60019250505092915050565b600080610b9a610cbd565b9050610ba7818585610f1c565b600191505092915050565b6000600160008473ffffffffffffffffffffffffffffffffffffffff1673ffffffffffffffffffffffffffffffffffffffff16815260200190815260200160002060008373ffffffffffffffffffffffffffffffffffffffff1673ffffffffffffffffffffffffffffffffffffffff16815260200190815260200160002054905092915050565b610c416112fd565b600073ffffffffffffffffffffffffffffffffffffffff168173ffffffffffffffffffffffffffffffffffffffff161415610cb1576040517f08c379a0000000000000000000000000000000000000000000000000000000008152600401610ca890611ccd565b60405180910390fd5b610cba8161137b565b50565b600033905090565b600073ffffffffffffffffffffffffffffffffffffffff168373ffffffffffffffffffffffffffffffffffffffff161415610d35576040517f08c379a0000000000000000000000000000000000000000000000000000000008152600401610d2c90611d5f565b60405180910390fd5b600073ffffffffffffffffffffffffffffffffffffffff168273ffffffffffffffffffffffffffffffffffffffff161415610da5576040517f08c379a0000000000000000000000000000000000000000000000000000000008152600401610d9c90611df1565b60405180910390fd5b80600160008573ffffffffffffffffffffffffffffffffffffffff1673ffffffffffffffffffffffffffffffffffffffff16815260200190815260200160002060008473ffffffffffffffffffffffffffffffffffffffff1673ffffffffffffffffffffffffffffffffffffffff168152602001908152602001600020819055508173ffffffffffffffffffffffffffffffffffffffff168373ffffffffffffffffffffffffffffffffffffffff167f8c5be1e5ebec7d5bd14f71427d1e84f3dd0314c0f7b2291e5b200ac8c7c3b92583604051610e839190611624565b60405180910390a3505050565b6000610e9c8484610bb2565b90507fffffffffffffffffffffffffffffffffffffffffffffffffffffffffffffffff8114610f165781811015610f08576040517f08c379a0000000000000000000000000000000000000000000000000000000008152600401610eff90611e5d565b60405180910390fd5b610f158484848403610cc5565b5b50505050565b600073ffffffffffffffffffffffffffffffffffffffff168373ffffffffffffffffffffffffffffffffffffffff161415610f8c576040517f08c379a0000000000000000000000000000000000000000000000000000000008152600401610f8390611eef565b60405180910390fd5b600073ffffffffffffffffffffffffffffffffffffffff168273ffffffffffffffffffffffffffffffffffffffff161415610ffc576040517f08c379a0000000000000000000000000000000000000000000000000000000008152600401610ff390611f81565b60405180910390fd5b611007838383611441565b60008060008573ffffffffffffffffffffffffffffffffffffffff1673ffffffffffffffffffffffffffffffffffffffff1681526020019081526020016000205490508181101561108d576040517f08c379a000000000000000000000000000000000000000000000000000000000815260040161108490612013565b60405180910390fd5b8181036000808673ffffffffffffffffffffffffffffffffffffffff1673ffffffffffffffffffffffffffffffffffffffff16815260200190815260200160002081905550816000808573ffffffffffffffffffffffffffffffffffffffff1673ffffffffffffffffffffffffffffffffffffffff1681526020019081526020016000206000828254611120919061181d565b925050819055508273ffffffffffffffffffffffffffffffffffffffff168473ffffffffffffffffffffffffffffffffffffffff167fddf252ad1be2c89b69c2b068fc378daa952ba7f163c4a11628f55a4df523b3ef846040516111849190611624565b60405180910390a3611197848484611446565b50505050565b600073ffffffffffffffffffffffffffffffffffffffff168273ffffffffffffffffffffffffffffffffffffffff16141561120d576040517f08c379a00000000000000000000000000000000000000000000000000000000081526004016112049061207f565b60405180910390fd5b61121960008383611441565b806002600082825461122b919061181d565b92505081905550806000808473ffffffffffffffffffffffffffffffffffffffff1673ffffffffffffffffffffffffffffffffffffffff1681526020019081526020016000206000828254611280919061181d565b925050819055508173ffffffffffffffffffffffffffffffffffffffff16600073ffffffffffffffffffffffffffffffffffffffff167fddf252ad1be2c89b69c2b068fc378daa952ba7f163c4a11628f55a4df523b3ef836040516112e59190611624565b60405180910390a36112f960008383611446565b5050565b611305610cbd565b73ffffffffffffffffffffffffffffffffffffffff1661132361097c565b73ffffffffffffffffffffffffffffffffffffffff1614611379576040517f08c379a0000000000000000000000000000000000000000000000000000000008152600401611370906120eb565b60405180910390fd5b565b6000600560009054906101000a900473ffffffffffffffffffffffffffffffffffffffff16905081600560006101000a81548173ffffffffffffffffffffffffffffffffffffffff021916908373ffffffffffffffffffffffffffffffffffffffff1602179055508173ffffffffffffffffffffffffffffffffffffffff168173ffffffffffffffffffffffffffffffffffffffff167f8be0079c531659141344cd1fd0a4f28419497f9722a3daafe3b4186f6b6457e060405160405180910390a35050565b505050565b505050565b600081519050919050565b600082825260208201905092915050565b60005b8381101561148557808201518184015260208101905061146a565b83811115611494576000848401525b50505050565b6000601f19601f8301169050919050565b60006114b68261144b565b6114c08185611456565b93506114d0818560208601611467565b6114d98161149a565b840191505092915050565b600060208201905081810360008301526114fe81846114ab565b905092915050565b600080fd5b600073ffffffffffffffffffffffffffffffffffffffff82169050919050565b60006115368261150b565b9050919050565b6115468161152b565b811461155157600080fd5b50565b6000813590506115638161153d565b92915050565b6000819050919050565b61157c81611569565b811461158757600080fd5b50565b60008135905061159981611573565b92915050565b600080604083850312156115b6576115b5611506565b5b60006115c485828601611554565b92505060206115d58582860161158a565b9150509250929050565b60008115159050919050565b6115f4816115df565b82525050565b600060208201905061160f60008301846115eb565b92915050565b61161e81611569565b82525050565b60006020820190506116396000830184611615565b92915050565b60008060006060848603121561165857611657611506565b5b600061166686828701611554565b935050602061167786828701611554565b92505060406116888682870161158a565b9150509250925092565b600060ff82169050919050565b6116a881611692565b82525050565b60006020820190506116c3600083018461169f565b92915050565b6000602082840312156116df576116de611506565b5b60006116ed8482850161158a565b91505092915050565b60006020828403121561170c5761170b611506565b5b600061171a84828501611554565b91505092915050565b61172c8161152b565b82525050565b60006020820190506117476000830184611723565b92915050565b6000806040838503121561176457611763611506565b5b600061177285828601611554565b925050602061178385828601611554565b9150509250929050565b7f4e487b7100000000000000000000000000000000000000000000000000000000600052602260045260246000fd5b600060028204905060018216806117d457607f821691505b602082108114156117e8576117e761178d565b5b50919050565b7f4e487b7100000000000000000000000000000000000000000000000000000000600052601160045260246000fd5b600061182882611569565b915061183383611569565b9250827fffffffffffffffffffffffffffffffffffffffffffffffffffffffffffffffff03821115611868576118676117ee565b5b828201905092915050565b60008151905061188281611573565b92915050565b60006020828403121561189e5761189d611506565b5b60006118ac84828501611873565b91505092915050565b7f596f7520646f6e2774206f776e20616e79204a6f686e6e7954696d65204e465460008201527f7300000000000000000000000000000000000000000000000000000000000000602082015250565b6000611911602183611456565b915061191c826118b5565b604082019050919050565b6000602082019050818103600083015261194081611904565b9050919050565b600060408201905061195c6000830185611723565b6119696020830184611615565b9392505050565b600061197b82611569565b91507fffffffffffffffffffffffffffffffffffffffffffffffffffffffffffffffff8214156119ae576119ad6117ee565b5b600182019050919050565b7f596f7527766520616c726561647920636c61696d656420616c6c20746865207460008201527f6f6b656e7320666f7220796f7572204e46547300000000000000000000000000602082015250565b6000611a15603383611456565b9150611a20826119b9565b604082019050919050565b60006020820190508181036000830152611a4481611a08565b9050919050565b6000611a5682611569565b9150611a6183611569565b9250817fffffffffffffffffffffffffffffffffffffffffffffffffffffffffffffffff0483118215151615611a9a57611a996117ee565b5b828202905092915050565b7f4578636565647320746865206d617820746f74616c20737570706c792061766160008201527f696c61626c652e00000000000000000000000000000000000000000000000000602082015250565b6000611b01602783611456565b9150611b0c82611aa5565b604082019050919050565b60006020820190508181036000830152611b3081611af4565b9050919050565b7f4e65656420746f2073656e64206d6f7265204554482e203120746f6b656e203d60008201527f20302e303031204554482e000000000000000000000000000000000000000000602082015250565b6000611b93602b83611456565b9150611b9e82611b37565b604082019050919050565b60006020820190508181036000830152611bc281611b86565b9050919050565b7f45524332303a2064656372656173656420616c6c6f77616e63652062656c6f7760008201527f207a65726f000000000000000000000000000000000000000000000000000000602082015250565b6000611c25602583611456565b9150611c3082611bc9565b604082019050919050565b60006020820190508181036000830152611c5481611c18565b9050919050565b7f4f776e61626c653a206e6577206f776e657220697320746865207a65726f206160008201527f6464726573730000000000000000000000000000000000000000000000000000602082015250565b6000611cb7602683611456565b9150611cc282611c5b565b604082019050919050565b60006020820190508181036000830152611ce681611caa565b9050919050565b7f45524332303a20617070726f76652066726f6d20746865207a65726f2061646460008201527f7265737300000000000000000000000000000000000000000000000000000000602082015250565b6000611d49602483611456565b9150611d5482611ced565b604082019050919050565b60006020820190508181036000830152611d7881611d3c565b9050919050565b7f45524332303a20617070726f766520746f20746865207a65726f20616464726560008201527f7373000000000000000000000000000000000000000000000000000000000000602082015250565b6000611ddb602283611456565b9150611de682611d7f565b604082019050919050565b60006020820190508181036000830152611e0a81611dce565b9050919050565b7f45524332303a20696e73756666696369656e7420616c6c6f77616e6365000000600082015250565b6000611e47601d83611456565b9150611e5282611e11565b602082019050919050565b60006020820190508181036000830152611e7681611e3a565b9050919050565b7f45524332303a207472616e736665722066726f6d20746865207a65726f20616460008201527f6472657373000000000000000000000000000000000000000000000000000000602082015250565b6000611ed9602583611456565b9150611ee482611e7d565b604082019050919050565b60006020820190508181036000830152611f0881611ecc565b9050919050565b7f45524332303a207472616e7366657220746f20746865207a65726f206164647260008201527f6573730000000000000000000000000000000000000000000000000000000000602082015250565b6000611f6b602383611456565b9150611f7682611f0f565b604082019050919050565b60006020820190508181036000830152611f9a81611f5e565b9050919050565b7f45524332303a207472616e7366657220616d6f756e742065786365656473206260008201527f616c616e63650000000000000000000000000000000000000000000000000000602082015250565b6000611ffd602683611456565b915061200882611fa1565b604082019050919050565b6000602082019050818103600083015261202c81611ff0565b9050919050565b7f45524332303a206d696e7420746f20746865207a65726f206164647265737300600082015250565b6000612069601f83611456565b915061207482612033565b602082019050919050565b600060208201905081810360008301526120988161205c565b9050919050565b7f4f776e61626c653a2063616c6c6572206973206e6f7420746865206f776e6572600082015250565b60006120d5602083611456565b91506120e08261209f565b602082019050919050565b60006020820190508181036000830152612104816120c8565b905091905056fea2646970667358221220c6e611301b87f6261f9c65091df16e2b3cef7430524e0259ea5ff29ac6a5116064736f6c634300080a0033",
  "linkReferences": {},
  "deployedLinkReferences": {}
}